:1000000082C09CC09BC09AC099C098C097C096C03F
:1000100095C094C093C092C091C090C007C48EC0D8
:100020008DC08CC08BC08AC089C088C087C086C084
:1000300085C084C07800FF8200FFFA00FF6E00FFD9
:100040006400FFF000FFFF00AAFF00FA8C00FF0031
:1000500000FF9600FFFF00F0FF00B4E600FF5A002B
:10006000FF5000FFDC00FFFF00BEFF00C8FF00D212
:10007000FF00DCFF00E6A000FF0A00FF1400FFAA5B
:1000800000FFB400FFBE00FFC800FFD200FF460023
:10009000FF3C00FF3200FF2800FF1E00FF0000FFB2
:1000A0000011FF0000FF1100FF2200FF1500FF00FC
:1000B00000FF0015FF0022FF00FFCC002BFF0020F7
:1000C000FF2000FFFF00D5FF00CCFF00BBFF00BFFB
:1000D000FF00BFFF600080FF0060FF0000FFBF0067
:1000E000FFBF00FFBB00FFAA00FFAA6AFF0080FF5E
:1000F00000FF6A00FF5500FF5500FF6600FF770014
:1001000077FF0066FF0011241FBECFEFD2E0DEBFF5
:10011000CDBF11E0A0E0B1E0ECEAFAE002C005904A
:100120000D92AE36B107D9F711E0AEE6B1E001C0ED
:100130001D92A03EB107E1F791D0B6C461CF8DEC1E
:100140008093640080B78F7780BF85B78F7E85BF2F
:1001500014B88FEF85B917B888B988E08AB987EFE6
:100160008BB992E094BD85E085BD84E687BD909310
:100170006E000895DF93CF93CDB7DEB727970FB604
:10018000F894DEBF0FBECDBF9F838E838091770131
:1001900089831D828BB188608A838BB1877F8B8333
:1001A0008B818C83898187FF02C08A818C836A81DD
:1001B0005B8129813C814D818E819F81E8E7F1E05F
:1001C0006BB9452F3BB900C026FD462F5BB900C077
:1001D0006BB9352F4BB900C025FD362F5BB900C078
:1001E0006BB9452F3BB900C024FD462F5BB900C059
:1001F0006BB9352F4BB900C023FD362F5BB900C05A
:100200006BB9452F3BB900C022FD462F5BB900C03A
:100210006BB9352F4BB900C021FD362F5BB900C03B
:100220006BB9452F3BB900C020FD462F5BB9019744
:100230006BB9352F4BB9219127FD362F5BB901F6EC
:1002400029833C834D839F838E8327960FB6F89432
:10025000DEBF0FBECDBFCF91DF91089570DF7894E0
:10026000FFCF6F927F928F929F92AF92BF92CF9269
:10027000DF92EF92FF920F931F93CF93DF933C0196
:100280009924882483944AC0E901CA0DDB1DF80132
:1002900040814423F9F0C70163E070E0B5D3F60173
:1002A000E80FF91F8081882361F5C901019663E099
:1002B00070E0AAD3FC01EA0DFB1DE958FE4F8081D6
:1002C0008F3F29F4C958DE4F4150488325C08F5FC6
:1002D000808322C0C901019663E070E095D3F601E6
:1002E000E80FF91F8081882361F4C70163E070E0A3
:1002F0008BD3F601E80FF91F8081882311F4F801F0
:1003000080822F5F3F4F0F5F1F4F0894E11CF11C4D
:100310002330310509F0B8CFF3E09F0EA92CBB24A0
:10032000A614B70450F4850109581E4F20E030E0B0
:1003300082E0E82EF12C6801A7CFDF91CF911F91C9
:100340000F91FF90EF90DF90CF90BF90AF909F9074
:100350008F907F906F900895CF93DF93EC01FB0116
:10036000DA0180917601222321F08F3F39F08B5FF3
:1003700003C0882319F0855080937601209176017F
:10038000243430F483E0289FC00111248E5C01C026
:100390008FEF8883203410F410820DC027FD09C030
:1003A000822F90E08054904C880F991F880F991FDE
:1003B00001C08FEF80832F3710F41C920DC0203CBA
:1003C00048F4822F90E08058904C880F991F880F36
:1003D000991F01C08FEF8C93DF91CF910895EF9219
:1003E000FF920F931F9393E0899FF001112410E077
:1003F000E958FE4F70E0069FC001079F900D169FC1
:10040000900D11246FEF70E0EBD26083E42EFF2497
:100410000E9DC0010F9D900D1E9D900D11246FEF3C
:1004200070E0DED2618330E0029FC001039F900D37
:10043000129F900D11246FEF70E0D2D262831F9152
:100440000F91FF90EF900895CF92DF92EF92FF927D
:100450000F93DF93CF93CDB7DEB7A6970FB6F8947F
:10046000DEBF0FBECDBFDE011496E6E6F1E028E068
:1004700001900D922150E1F7DE011C96EAE5F1E0D2
:100480002CE001900D922150E1F7DE015896EBE44B
:10049000F1E02FE001900D922150E1F768E770E064
:1004A0009FD260E570E09CD2262FCE010196BE015E
:1004B0006E5F7F4FAE014D5F5F4F4EDF74E0E72E02
:1004C000F12CEC0EFD1E6CE0C62ED12CCC0EDD1EE8
:1004D000F70181917F0160E04FEF22E309817FDF27
:1004E000EC14FD04A9F758E1C52ED12CCC0EDD1E6D
:1004F000F70181917F0160E04FEF2FEF0A816FDFFD
:10050000EC14FD04A9F747E2C42ED12CCC0EDD1E5D
:10051000F70181917F0160EA46E426EE0B815FDFFF
:10052000EC14FD04A9F7A6960FB6F894DEBF0FBE33
:10053000CDBFCF91DF910F91FF90EF90DF90CF90E3
:100540000895982F86958695292F26952695269588
:1005500082278927292F22952F7082278795882720
:1005600087959695892B089566E970E039D20097B2
:1005700079F480914A01E5DF80934A0192E2899FF4
:10058000C00111246FEF70E02BD2609375010895C4
:100590008F319105B8F49091750183E0989F900197
:1005A0001124F901E958FE4F80818F3F11F0885FD7
:1005B0008083F901E758FE4F80818F3FE1F08A5F29
:1005C000808308958D339105B0F49091750183E097
:1005D000989F90011124F901E958FE4F80818823EA
:1005E00011F088508083F901E758FE4F80818823FD
:1005F00011F0865080830895681714F4861B0895BF
:10060000681B862F0895AF92BF92CF92DF92EF9230
:10061000FF920F931F937A015C01A61AB70ACC24AC
:10062000B7FCC094DC2CE21AF30A0027F7FC009513
:10063000102FC801B701A8019701B3D124E630E01B
:1006400040E050E0F4D179018A01C601B501A6016C
:100650009501A7D124E630E040E050E0E8D1E20E79
:10066000F31EC7011F910F91FF90EF90DF90CF9085
:10067000BF90AF9008956F927F928F929F92AF92AA
:10068000BF92CF92DF92EF92FF920F931F93DF936F
:10069000CF93CDB7DEB7C654D0400FB6F894DEBFC7
:1006A0000FBECDBFDE011196E4E0F1E086E40190DB
:1006B0000D928150E1F76091020170910301309138
:1006C0000101E32FFF27E7FDF095809172016E177E
:1006D0007F0724F485303CF48F5F03C08C3F1CF00F
:1006E0008150809372014091730150917401109177
:1006F0000001812F992787FD90952091710148175E
:10070000590724F425303CF42F5F03C02C3F1CF024
:1007100021502093710180917201C82EDD24C7FC05
:10072000D094C60ED71ED0920301C09202018091D0
:100730007101A82EBB24A7FCB094A40EB51EB092E4
:100740007401A0927301C6018E1B9F0B049609973A
:1007500078F07E010894E11CF11C07E711E0FFEF3F
:100760006F2E712CE5E48E2E912C8C0E9D1E0DC0EB
:10077000832F8158E6DE8F5780930101812F8158A6
:10078000E0DE8F5780930001E4CFF7016081772787
:1007900067FD70952181332727FD3095C601A5019E
:1007A00032DF9C018A30910580F4269DC001279D8F
:1007B000900D369D900D11246AE070E011D1609586
:1007C000F80162836183608311C0F801818188230D
:1007D00069F081508183828181508283808183305E
:1007E00018F08250808302C0F801108282E090E00D
:1007F000E80EF91E0D5F1F4FE814F90431F6CA5BCD
:10080000DF4F0FB6F894DEBF0FBECDBFCF91DF91A3
:100810001F910F91FF90EF90DF90CF90BF90AF901E
:100820009F908F907F906F90089508951F920F92E0
:100830000FB60F9211240F931F932F933F934F9353
:100840005F936F937F938F939F93AF93BF93EF9338
:10085000FF9380916E01813069F1813038F08230F0
:1008600009F440C0833009F086C064C080916F01F4
:1008700090917001009779F420E030E0F901EC5C90
:10088000FF4FE491D901A958BE4FEC932F5F3F4F22
:100890002936310599F701969093700180936F0185
:1008A000805A9F4009F042C01092700110926F016F
:1008B00081E03AC000916F01109170010F5F1F4FEE
:1008C0001093700100936F01C801BEDD005A1F40F4
:1008D00009F051C01092700110926F0182E0809374
:1008E0006E0149C080916F0190917001009779F479
:1008F00020E030E0F901E356FF4FE491D901A95817
:10090000BE4FEC932F5F3F4F2936310599F7019683
:100910009093700180936F01805A9F4039F4109238
:10092000700110926F0183E080936E0189E690E080
:1009300098DC21C080916F0190917001009751F473
:10094000E7E7F1E0108211821282339621E0E03E67
:10095000F207C1F78C010F5F1F4F109370010093D6
:100960006F0189DE005A1F4031F41092700110921D
:100970006F0110926E0189E690E0FCDBFF91EF9130
:10098000BF91AF919F918F917F916F915F914F91A7
:100990003F912F911F910F910F900FBE0F901F90BD
:1009A0001895629FD001739FF001829FE00DF11DA9
:1009B000649FE00DF11D929FF00D839FF00D749FD9
:1009C000F00D659FF00D9927729FB00DE11DF91F85
:1009D000639FB00DE11DF91FBD01CF0111240895E2
:1009E000AA1BBB1B51E107C0AA1FBB1FA617B70755
:1009F00010F0A61BB70B881F991F5A95A9F7809571
:100A00009095BC01CD01089597FB092E07260AD0C9
:100A100077FD04D0E5DF06D000201AF470956195CB
:100A20007F4F0895F6F7909581959F4F089597FB16
:100A3000092E05260ED057FD04D014D00AD0001C74
:100A400038F450954095309521953F4F4F4F5F4F6B
:100A50000895F6F790958095709561957F4F8F4F2B
:100A60009F4F0895A1E21A2EAA1BBB1BFD010DC0CA
:100A7000AA1FBB1FEE1FFF1FA217B307E407F5074E
:100A800020F0A21BB30BE40BF50B661F771F881F2A
:100A9000991F1A9469F760957095809590959B01C0
:0C0AA000AC01BD01CF010895F894FFCF18
:100AAC00010582FF0081E6A900AE1AA944CE1ED52D
:100ABC0000DBE2D5BCCE92F9BDF7E5F91BF943F7A3
:100ACC006EF97F28541D2A131B260015E526D61314
:100ADC00AC1D81289253BD3FE245003F1E45433F6C
:100AEC006E5344671A5BE65BBC67010003040E0F90
:100AFC001E1F202122181709080102050D101D1CAC
:0E0B0C001B1A19160A07060C11121314150BEA
:00000001FF
